:020000040800F2
:1000000000000220411C0008311A0008391A0008BB
:10001000411A0008491A0008511A0008000000009F
:10002000000000000000000000000000591A000855
:10003000671A000800000000751A0008831A0008FB
:10004000911C0008911C0008911C0008911C0008DC
:10005000911C0008911C0008911C0008911C0008CC
:10006000911C0008911C0008911C0008911C0008BC
:10007000911C0008911C0008911C0008911C0008AC
:10008000911C0008911C0008911C00080000000051
:10009000000000000000000000000000911C0008AB
:1000A000911C0008911C0008911C0008911C00087C
:1000B000911C0008911C0008911C0008911C00086C
:1000C000911C0008911C0008911C0008911C00085C
:1000D000911C0008911C0008911C00080000000001
:1000E000911C0008911C0008911C000800000000F1
:1000F000000000000000000000000000911C00084B
:1001000000000000911C0008911C0008911C0008D0
:1001100000000000000000000000000000000000DF
:10012000911C0008911C0008911C0008911C0008FB
:10013000911C00080000000000000000000000000A
:10014000000000000000000000000000911C0008FA
:10015000911C0008911C0008911C0008911C0008CB
:10016000911C0008911C0008000000000000000025
:10017000000000000000000000000000000000007F
:1001800000000000911C00080000000000000000BA
:08019000911C0008911C0008FD
:1001A00010B5054C237833B9044B13B10448AFF3B1
:1001B00000800123237010BDD40100200000000046
:1001C0005870000808B5034B1BB103490348AFF34F
:1001D000008008BD00000000D80100205870000811
:1001E00001F0FF01102A2BDB10F0070F08D010F8E8
:1001F000013B013A8B422DD010F0070F42B3F6D1EC
:10020000F0B441EA012141EA014122F007047FF004
:1002100000070023F0E80256083C85EA010586EA5B
:10022000010685FA47F5A3FA87F586FA47F6A5FA97
:1002300087F68EB9EED1F0BC01F0FF0102F00702A3
:1002400032B110F8013B013A83EA010313B1F8D14E
:100250000020704701387047002D06BF354603382F
:10026000073815F0010F07D1013015F4807F02BF68
:10027000013015F4C03F0130F0BC0138704700BFB9
:10028000034613F8012B002AFBD1181A01387047D6
:1002900081F0004102E000BF83F0004330B54FEA37
:1002A00041044FEA430594EA050F08BF90EA020FA4
:1002B0001FBF54EA000C55EA020C7FEA645C7FEA37
:1002C000655C00F0E2804FEA5454D4EB5555B8BF5A
:1002D0006D420CDD2C4480EA020281EA030382EACB
:1002E000000083EA010180EA020281EA0303362D5D
:1002F00088BF30BD11F0004F4FEA01314FF4801C30
:100300004CEA113102D0404261EB410113F0004F41
:100310004FEA03334CEA133302D0524263EB4303F8
:1003200094EA050F00F0A780A4F10104D5F1200E96
:100330000DDB02FA0EFC22FA05F2801841F10001F1
:1003400003FA0EF2801843FA05F359410EE0A5F1C5
:1003500020050EF1200E012A03FA0EFC28BF4CF0F6
:10036000020C43FA05F3C01851EBE37101F00045AC
:1003700007D54FF0000EDCF1000C7EEB00006EEBB9
:100380000101B1F5801F1BD3B1F5001F0CD3490843
:100390005FEA30004FEA3C0C04F101044FEA44529A
:1003A00012F5800F80F09A80BCF1004F08BF5FEA21
:1003B000500C50F1000041EB045141EA050130BD01
:1003C0005FEA4C0C404141EB0101013C28BFB1F513
:1003D000801FE9D291F0000F04BF01460020B1FA5E
:1003E00081F308BF2033A3F10B03B3F120020CDA31
:1003F0000C3208DD02F1140CC2F10C0201FA0CF00F
:1004000021FA02F10CE002F11402D8BFC2F1200C73
:1004100001FA02F120FA0CFCDCBF41EA0C01904029
:10042000E41AA2BF01EB0451294330BD6FEA040472
:100430001F3C1CDA0C340EDC04F11404C4F120025D
:1004400020FA04F001FA02F340EA030021FA04F36F
:1004500045EA030130BDC4F10C04C4F1200220FAC6
:1004600002F001FA04F340EA0300294630BD21FA04
:1004700004F0294630BD94F0000F83F4801306BFCA
:1004800081F480110134013D4EE77FEA645C18BFBE
:100490007FEA655C29D094EA050F08BF90EA020F55
:1004A00005D054EA000C04BF1946104630BD91EA4D
:1004B000030F1EBF0021002030BD5FEA545C05D150
:1004C0004000494128BF41F0004130BD14F580048F
:1004D0003CBF01F5801130BD01F0004545F0FE4103
:1004E00041F470014FF0000030BD7FEA645C1ABF38
:1004F000194610467FEA655C1CBF0B46024650EA6F
:10050000013406BF52EA033591EA030F41F400219A
:1005100030BD00BF90F0000F04BF0021704730B520
:100520004FF4806404F132044FF000054FF00001F5
:1005300050E700BF90F0000F04BF0021704730B5B6
:100540004FF4806404F1320410F0004548BF40428B
:100550004FF000013EE700BF42004FEAE2014FEAE0
:1005600031014FEA02701FBF12F07F4393F07F4FBB
:1005700081F06051704732F07F4208BF704793F0BE
:100580007F4F04BF41F40021704730B54FF46074D1
:1005900001F0004521F000411CE700BF50EA0102D4
:1005A00008BF704730B54FF000050AE050EA01027D
:1005B00008BF704730B511F0004502D5404261EBED
:1005C00041014FF4806404F132045FEA915C3FF42E
:1005D000D8AE4FF003025FEADC0C18BF03325FEACB
:1005E000DC0C18BF033202EBDC02C2F1200300FA7C
:1005F00003FC20FA02F001FA03FE40EA0E0021FAA1
:1006000002F11444BDE600BF70B54FF0FF0C4CF48E
:10061000E06C1CEA11541DBF1CEA135594EA0C0F40
:1006200095EA0C0F00F0DEF82C4481EA030621EA7B
:100630004C5123EA4C5350EA013518BF52EA0335B6
:1006400041F4801143F4801338D0A0FB02CE4FF068
:100650000005E1FB02E506F00042E0FB03E54FF098
:100660000006E1FB03569CF0000F18BF4EF0010E90
:10067000A4F1FF04B6F5007F64F5407404D25FEA8C
:100680004E0E6D4146EB060642EAC62141EA55513F
:100690004FEAC52040EA5E504FEACE2EB4F1FD0C81
:1006A00088BFBCF5E06F1ED8BEF1004F08BF5FEAFF
:1006B000500E50F1000041EB045170BD06F00046B1
:1006C00046EA010140EA020081EA0301B4EB5C045E
:1006D000C2BFD4EB0C0541EA045170BD41F4801156
:1006E0004FF0000E013C00F3AB8014F1360FDEBF7B
:1006F000002001F0004170BDC4F10004203C35DA57
:100700000C341BDC04F11404C4F1200500FA05F3D9
:1007100020FA04F001FA05F240EA020001F000427A
:1007200021F0004110EBD37021FA04F642EB0601F0
:100730005EEA430E08BF20EAD37070BDC4F10C041A
:10074000C4F1200500FA04F320FA05F001FA04F2DE
:1007500040EA020001F0004110EBD37041F10001CA
:100760005EEA430E08BF20EAD37070BDC4F12005D5
:1007700000FA05F24EEA020E20FA04F301FA05F23D
:1007800043EA020321FA04F001F0004121FA04F2E5
:1007900020EA020000EBD3705EEA430E08BF20EAB5
:1007A000D37070BD94F0000F0FD101F000464000EF
:1007B00041EB010111F4801F08BF013CF7D041EA71
:1007C000060195F0000F18BF704703F00046520075
:1007D00043EB030313F4801F08BF013DF7D043EA46
:1007E0000603704794EA0C0F0CEA135518BF95EAFC
:1007F0000C0F0CD050EA410618BF52EA4306D1D183
:1008000081EA030101F000414FF0000070BD50EAA1
:10081000410606BF1046194652EA430619D094EA2B
:100820000C0F02D150EA013613D195EA0C0F05D115
:1008300052EA03361CBF104619460AD181EA030169
:1008400001F0004141F0FE4141F470014FF0000021
:1008500070BD41F0FE4141F4780170BD70B54FF0BC
:10086000FF0C4CF4E06C1CEA11541DBF1CEA13553C
:1008700094EA0C0F95EA0C0F00F0A7F8A4EB05041E
:1008800081EA030E52EA03354FEA013100F0888015
:100890004FEA03334FF0805545EA131343EA1263DE
:1008A0004FEA022245EA111545EA10654FEA002693
:1008B0000EF000419D4208BF964244F1FD0404F54C
:1008C000407402D25B084FEA3202B61A65EB0305A8
:1008D0005B084FEA32024FF480104FF4002CB6EB65
:1008E000020E75EB030E22BFB61A754640EA0C00E5
:1008F0005B084FEA3202B6EB020E75EB030E22BF25
:10090000B61A754640EA5C005B084FEA3202B6EB65
:10091000020E75EB030E22BFB61A754640EA9C0024
:100920005B084FEA3202B6EB020E75EB030E22BFF4
:10093000B61A754640EADC0055EA060E18D04FEAB2
:10094000051545EA16754FEA06164FEAC30343EA52
:1009500052734FEAC2025FEA1C1CC0D111F4801F1F
:100960000BD141EA00014FF000004FF0004CB6E718
:1009700011F4801F04BF01430020B4F1FD0C88BFB7
:10098000BCF5E06F3FF6AFAEB5EB030C04BFB6EBC2
:10099000020C5FEA500C50F1000041EB045170BDB5
:1009A0000EF0004E4EEA113114EB5C04C2BFD4EBE2
:1009B0000C0541EA045170BD41F480114FF0000E66
:1009C000013C90E645EA060E8DE60CEA135594EAE2
:1009D0000C0F08BF95EA0C0F3FF43BAF94EA0C0FE5
:1009E0000AD150EA01347FF434AF95EA0C0F7FF45A
:1009F00025AF104619462CE795EA0C0F06D152EAAE
:100A000003353FF4FDAE1046194622E750EA410691
:100A100018BF52EA43067FF4C5AE50EA41047FF4A2
:100A20000DAF52EA43057FF4EBAE12E74FF0FF3C07
:100A300006E000BF4FF0010C02E000BF4FF0010CD8
:100A40004DF804CD4FEA410C7FEA6C5C4FEA430C51
:100A500018BF7FEA6C5C1BD001B050EA410C0CBFA0
:100A600052EA430C91EA030F02BF90EA020F002002
:100A7000704710F1000F91EA030F58BF994208BF69
:100A800090422CBFD8176FEAE37040F00100704726
:100A90004FEA410C7FEA6C5C02D150EA013C07D17D
:100AA0004FEA430C7FEA6C5CD6D152EA033CD3D0C8
:100AB0005DF8040B704700BF8446104662468C46C2
:100AC0001946634600E000BF01B5FFF7B7FF0028F5
:100AD00048BF10F1000F01BD4DF808EDFFF7F4FF1E
:100AE0000CBF012000205DF808FB00BF4DF808EDA9
:100AF000FFF7EAFF34BF012000205DF808FB00BFCC
:100B00004DF808EDFFF7E0FF94BF012000205DF8ED
:100B100008FB00BF4DF808EDFFF7CEFF94BF0120A2
:100B200000205DF808FB00BF4DF808EDFFF7C4FF9B
:100B300034BF012000205DF808FB00BF4FEA410CE4
:100B40007FEA6C5C02D150EA013C0AD14FEA430CC7
:100B50007FEA6C5C02D152EA033C02D14FF0000004
:100B600070474FF0010070474FEA410212F5001242
:100B700015D211D56FF47873B3EB625212D94FEAE4
:100B8000C12343F0004343EA505311F0004F23FACE
:100B900002F018BF404270474FF00000704750EA23
:100BA000013005D111F0004008BF6FF000407047E0
:100BB0004FF00000704700BF4FEA4102B2F1E0433E
:100BC00024BFB3F5001CDCF1FE5C0DD901F0004C34
:100BD0004FEAC0024CEA5070B2F1004F40EB830084
:100BE00008BF20F00100704711F0804F21D113F1B0
:100BF0003872BCBF01F00040704741F480114FEAE9
:100C00005252C2F11802C2F1200C10FA0CF320FA71
:100C100002F018BF40F001004FEAC1234FEAD3238E
:100C200003FA0CFC40EA0C0023FA02F34FEA4303F8
:100C3000CCE77FEA625307D150EA01331EBF4FF081
:100C4000FE4040F44000704701F0004040F0FE409C
:100C500040F40000704700BF53B94AB9002908BFEB
:100C600000281CBF4FF0FF314FF0FF3000F088B973
:100C7000ADF1080C6DE904CE00F006F8DDF804E0F3
:100C8000DDE9022304B070472DE9F047089D8E4648
:100C900004468846002B4AD18A42174662D9B2FAE6
:100CA00082F64EB1C6F1200301FA06F820FA03F3EA
:100CB000B74043EA0808B4404FEA174E1FFA87FCD2
:100CC000B8FBFEF1230C0EFB118843EA084301FB3D
:100CD0000CF29A4209D9FB1801F1FF3080F0EA804A
:100CE0009A4240F2E78002393B449A1AA3B2B2FB1F
:100CF000FEF00EFB102243EA024300FB0CFC9C4575
:100D000009D9FB1800F1FF3280F0D6809C4540F2F3
:100D1000D3803B44023840EA0140A3EB0C0300219E
:100D20001DB1F3400022C5E90032BDE8F0878B42D7
:100D300005D90DB1C5E9000100210846F5E7B3FA70
:100D400083F1002946D1734502D3824200F2058126
:100D5000841A6EEB030201209046002DE5D0C5E910
:100D60000048E2E7002A00F09080B2FA82F6002EF6
:100D700040F0A4808A1A030C4FEA174E80B2BCB22E
:100D80000121B2FBFEFC0EFB1C2243EA024304FBE2
:100D90000CF29A4207D9FB180CF1FF3802D29A42A2
:100DA00000F2E080C4469B1AB3FBFEF20EFB123346
:100DB00040EA034302FB04F49C4207D9FB1802F10A
:100DC000FF3002D29C4200F2CA8002461B1B42EA5C
:100DD0000C40A5E7C1F120068B4022FA06F71F431D
:100DE0000EFA01F420FA06F32EFA06FE4FEA17492E
:100DF000234300FA01F81FFA87FCBEFBF9F01C0C34
:100E000009FB10EE44EA0E4400FB0CFEA64502FA74
:100E100001F209D93C1900F1FF3A80F09C80A64507
:100E200040F2998002383C44A4EB0E041FFA83FE82
:100E3000B4FBF9F309FB13444EEA044403FB0CFC36
:100E4000A44508D93C1903F1FF3E80F08280A445F7
:100E50007FD9023B3C4443EA0040A4EB0C04A0FBD6
:100E600002EC64457346E14662D35FD05DB1B8EBF6
:100E7000030264EB090404FA06F622FA01F31E43A6
:100E8000CC40C5E9006400214FE7B1FBF2FC010C46
:100E900041EA0E4180B240EA01423B4638463C46B8
:100EA000B846BE462026B1FBF7F1A2EB080241EAA4
:100EB0000C4166E7014618E710462CE7C6F1200210
:100EC0002EFA02F3B740B14020FA02F24FEA174E71
:100ED0000A43B3FBFEF8BCB20EFB1833110C41EA17
:100EE000034108FB04F9B04089454FEA104380B242
:100EF0003ED9791808F1FF3C01D289451FD8A1EBF2
:100F00000901B1FBFEF909FB04F80EFB191192B2BD
:100F100042EA0142424529D2BA1809F1FF31C4D24E
:100F20004245C2D2A9F102013A44BEE7F0459DD242
:100F3000BEEB02036CEB070C0138E14696E7A7EB2A
:100F400009094944A8F1020CB1FBFEF909FB04F8B8
:100F5000DBE773467FE7504666E70846FDE63B441D
:100F6000023A33E7ACF1020C3B441CE749469CE7EC
:100F7000A1EB0901C446B1FBFEF909FB04F8C4E783
:100F8000704700BF80B500AF00F084FE00F022F88B
:100F900000F0E2F800F0B6F800F086F800F03BFA56
:100FA0000A4800F023FAC02000F06EF9084800F06B
:100FB0001DFA00F061FA002000F00AFC00F05CFA73
:100FC00041F2883000F0D8FE00BFF4E770700008EE
:100FD0007C70000880B594B000AF07F12003302288
:100FE0000021184603F06BFF07F10C0300221A6082
:100FF0005A609A60DA601A610023BB60284B1B6C50
:10100000274A43F080531364254B1B6C03F0805335
:10101000BB60BB6800237B60224B1B68214A43F402
:10102000404313601F4B1B6803F440437B607B68A5
:1010300002233B620123FB6210233B630223BB6359
:101040000023FB6310233B644FF4A8737B640423E9
:10105000BB640423FB6407F12003184602F042FA44
:101060000346002B01D000F003FC0F23FB6002239A
:101070003B6100237B614FF48053BB610023FB6124
:1010800007F10C030221184602F0A4FC0346002BD2
:1010900001D000F0EDFB00BF5037BD4680BD00BF62
:1010A000003802400070004080B500AF124B134A78
:1010B0001A60114B124A5A600F4B00229A600E4B75
:1010C0000022DA600C4B4FF480421A610A4B002276
:1010D0005A61094B00229A61074B0022DA61064BE4
:1010E00000221A62044801F0D3F90346002B01D014
:1010F00000F0BEFB00BF80BDF001002000540040A6
:10110000A086010080B500AF114B124A1A60104B47
:101110004FF4E1325A600E4B00229A600C4B0022D1
:10112000DA600B4B00221A61094B0C225A61084B02
:1011300000229A61064B0022DA61054802F06AFE3D
:101140000346002B01D000F093FB00BF80BD00BF21
:10115000440200200044004080B58AB000AF07F18F
:10116000140300221A605A609A60DA601A61002340
:101170003B61414B1B6B404A43F0040313633E4BFE
:101180001B6B03F004033B613B690023FB603A4B9C
:101190001B6B394A43F080031363374B1B6B03F01F
:1011A0008003FB60FB680023BB60334B1B6B324A40
:1011B00043F001031363304B1B6B03F00103BB606F
:1011C000BB6800237B602C4B1B6B2B4A43F0020354
:1011D0001363294B1B6B03F002037B607B680022C7
:1011E0003F21264801F03AF90022F321244801F07A
:1011F00035F9002240F20761224801F02FF94FF43F
:1012000000537B614FF40413BB610023FB6107F1C2
:1012100014031946194800F0B9FE3F237B610123EE
:10122000BB610023FB6100233B6207F114031946F5
:10123000124800F0ABFEF3237B610123BB61002366
:10124000FB6100233B6207F1140319460C4800F0D0
:101250009DFE40F207637B610123BB610023FB61BC
:1012600000233B6207F114031946064800F08EFE86
:1012700000BF2837BD4680BD00380240000802404C
:10128000000002400004024080B582B000AF034677
:10129000FB7100221021094801F0E0F80022022130
:1012A000064801F0DBF8FB79184600F025F801202C
:1012B00000F062FD00BF0837BD4680BD000002405F
:1012C00080B582B000AF0346FB71012210210948AE
:1012D00001F0C4F800220221064801F0BFF8FB79B2
:1012E000184600F009F8012000F046FD00BF08375D
:1012F000BD4680BD0000024080B582B000AF03460D
:10130000FB71FB7903F00103DBB21A4640212A4846
:1013100001F0A4F8FB795B10DBB203F00103DBB250
:101320001A468021244801F099F8FB799B10DBB222
:1013300003F00103DBB21A461021204801F08EF8B9
:10134000FB79DB10DBB203F00103DBB21A4620218C
:101350001A4801F083F8FB791B11DBB203F001039B
:10136000DBB21A460121164801F078F8FB795B11CF
:10137000DBB203F00103DBB21A460221104801F090
:101380006DF8FB799B11DBB203F00103DBB21A4667
:1013900004210B4801F062F8FB79DB09DBB21A4645
:1013A0004FF48061064801F059F800F00BF800BFD7
:1013B0000837BD4680BD00BF000002400008024063
:1013C0000004024080B500AF01220121064801F06F
:1013D00045F8012000F0D0FC00220121024801F074
:1013E0003DF800BF80BD00BF0000024080B582B064
:1013F00000AF786006E07B685A1C7A601B7818465C
:10140000FFF75EFF7B681B78002BF4D100BF00BFA5
:101410000837BD4680BD80B500AF322000F0ACFC7F
:101420003020FFF731FF052000F0A6FC3020FFF749
:101430002BFF012000F0A0FC3020FFF725FF01204A
:1014400000F09AFC3820FFF71FFF012000F094FC09
:101450000C20FFF719FF012000F08EFC0120FFF7A0
:1014600013FF022000F088FC0620FFF70DFF01208B
:1014700000F082FC00BF80BD80B594B002AF0122B5
:101480004FF40071C24800F0E9FFC82000F074FC7E
:10149000002387F82F30BF4A07F12C03126811464A
:1014A00019800233120C1A7007F1240300221A600B
:1014B0009A8003237B6451E10120FFF7E5FEB648E3
:1014C000FFF794FF07F12F024FF4FA730093012303
:1014D0007021B24801F04EFA034687F8433097F87E
:1014E0004330002B15D0022000F072F9C020FFF726
:1014F000CBFEAB48FFF77AFFA84801F00DF90A20B0
:1015000000F03AFCA54800F0C3FF642000F034FC72
:1015100024E197F82F3003F01803182B3ED0012058
:10152000FFF7B2FE9F48FFF761FF1B2387F82030CB
:10153000002387F8213007F120024FF4FA7300935B
:1015400002237021954801F017F9052000F014FCE2
:101550001C2387F82030002387F8213007F1200270
:101560004FF4FA730093022370218C4801F004F9C0
:10157000052000F001FC1E2387F82030002387F8A7
:10158000213007F120024FF4FA73009302237021F7
:10159000824801F0F1F8052000F0EEFB07F12C0283
:1015A0004FF4FA730093032370217C4801F0E4F8B0
:1015B000034687F84330502000F0DEFB97F84330B5
:1015C000002B15D0022000F003F90120FFF75CFE8C
:1015D0007548FFF70BFF714801F09EF80A2000F0F4
:1015E000CBFB6E4800F054FF642000F0C5FBB5E073
:1015F00007F12F024FF4FA7300930123702167481B
:1016000001F0B8F997F82F305BB2002BC0F29A8046
:1016100007F124024FF47A730093062370215F4888
:1016200001F0A8F9034687F8433097F84330002BC0
:1016300009D00120FFF728FE5C48FFF7D7FE022003
:1016400000F0C6F88AE097F825301A0397F826309C
:101650001B01134397F827201209D2B21343FB63EF
:1016600097F827301B0403F4702297F828301B02E8
:10167000134397F829201343BB63F86BFEF74AFF27
:101680004FF000024A4BFFF7E9F802460B461046BE
:1016900019464FF00002474BFEF7B6FF02460B46D5
:1016A00010461946FFF788FA03467B63B86BFEF7CE
:1016B00031FF4FF000023E4BFFF7D0F802460B46D9
:1016C000104619464FF000023B4BFEF79DFF0246C5
:1016D0000B46104619464FF00002384BFEF7DCFD72
:1016E00002460B4610461946FFF766FA03463B636F
:1016F0000120FFF7C9FD786BFEF72EFF02460B466F
:101700003846CDE900232E4A202103F05FFB3B46FB
:101710001846FFF76BFEC020FFF7B6FD386BFEF7EB
:101720001BFF02460B463846CDE90023254A2021FF
:1017300003F04CFB3B461846FFF758FE012000F033
:1017400047F811E0032000F043F80120FFF79CFD6B
:101750001D48FFF74BFE642000F00EFB7B6C5A1E09
:101760007A64002B7FF4A8AE7B6C002B05DA012095
:10177000FFF78AFD1548FFF739FE00224FF400718C
:10178000034800F06BFE00BF4837BD4680BD00BF78
:10179000000402402071000884700008F00100205D
:1017A00098700008AC700008C0700008D470000881
:1017B00000003041000059400000694000004940ED
:1017C000E8700008F470000800710008107100084B
:1017D00080B582B000AF78607B68032B42D801A24D
:1017E00052F823F0F5170008111800082D1800080A
:1017F00049180008012201211C4800F02FFE642036
:1018000000F0BAFA00220121184800F027FE29E072
:1018100001220221154800F021FE642000F0ACFAFC
:1018200000220221114800F019FE1BE001220421D0
:101830000E4800F013FE642000F09EFA00220421FE
:101840000A4800F00BFE0DE001220821074800F0D5
:1018500005FE642000F090FA00220821034800F001
:10186000FDFD00BF00BF0837BD4680BD0008024037
:1018700080B400AF72B600BF00BFFDE780B582B094
:1018800000AF00237B60104B5B6C0F4A43F4804336
:1018900053640D4B5B6C03F480437B607B680023D7
:1018A0003B60094B1B6C084A43F080531364064BA2
:1018B0001B6C03F080533B603B68072000F032FB59
:1018C00000BF0837BD4680BD0038024080B58AB0F1
:1018D00000AF786007F1140300221A605A609A6022
:1018E000DA601A617B681B68194A93422BD1002386
:1018F0003B61184B1B6B174A43F002031363154BF4
:101900001B6B03F002033B613B69C0237B61122325
:10191000BB610023FB6103233B6204237B6207F16D
:10192000140319460C4800F031FB0023FB60094BFF
:101930001B6C084A43F400131364064B1B6C03F43E
:101940000013FB60FB6800BF2837BD4680BD00BFA9
:1019500000540040003802400004024080B582B0CC
:1019600000AF78607B681B680A4A93420DD10A4B2E
:101970001B6C094A23F4001313644021074800F04C
:1019800089FC8021054800F085FC00BF0837BD4672
:1019900080BD00BF005400400038024000040240F7
:1019A00080B58AB000AF786007F1140300221A6096
:1019B0005A609A60DA601A617B681B68194A934220
:1019C0002BD100233B61184B1B6C174A43F40033A7
:1019D0001364154B1B6C03F400333B613B6900231C
:1019E000FB60114B1B6B104A43F0010313630E4B5A
:1019F0001B6B03F00103FB60FB680C237B6102237C
:101A0000BB610023FB6103233B6207237B6207F179
:101A100014031946054800F0B9FA00BF2837BD463F
:101A200080BD00BF0044004000380240000002407A
:101A300080B400AF00BFFDE780B400AF00BFFDE79A
:101A400080B400AF00BFFDE780B400AF00BFFDE78A
:101A500080B400AF00BFFDE780B400AF00BFBD465B
:101A60005DF8047B704780B400AF00BFBD465DF8F1
:101A7000047B704780B400AF00BFBD465DF8047BB7
:101A8000704780B500AF00F057F900BF80BD80B44B
:101A900000AF01231846BD465DF8047B704780B552
:101AA00082B000AF7860396003F05CFA034616221A
:101AB0001A604FF0FF3318460837BD4680BD80B529
:101AC00082B000AF78604FF0FF317868FFF7E7FF32
:101AD00000BFFDE780B586B000AFF860B9607A60FE
:101AE00000237B610AE0AFF300800146BB685A1C0B
:101AF000BA60CAB21A707B6901337B617A697B680C
:101B00009A42F0DB7B6818461837BD4680BD80B529
:101B100086B000AFF860B9607A6000237B6109E0AD
:101B2000BB685A1CBA601B781846AFF300807B690B
:101B300001337B617A697B689A42F1DB7B681846E6
:101B40001837BD4680BD80B483B000AF78604FF0D9
:101B5000FF3318460C37BD465DF8047B704780B4F0
:101B600083B000AF786039603B684FF400525A6030
:101B7000002318460C37BD465DF8047B704780B4DF
:101B800083B000AF7860012318460C37BD465DF87E
:101B9000047B704780B485B000AFF860B9607A60AC
:101BA000002318461437BD465DF8047B70470000DB
:101BB00080B586B000AF7860144A154BD31A7B61AC
:101BC0007B693B61134B1B68002B02D1114B124AFE
:101BD0001A60104B1A687B6813443A699A4207D21C
:101BE00003F0C0F903460C221A604FF0FF3309E0FE
:101BF000084B1B68FB60074B1A687B681344054A57
:101C00001360FB6818461837BD4680BD00000220EF
:101C1000000400008C020020E003002080B400AF2C
:101C2000064BD3F88830054A43F47003C2F8883075
:101C300000BFBD465DF8047B704700BF00ED00E0CB
:101C4000DFF834D0FFF7EAFF0C480D490D4A0023B6
:101C500002E0D458C4500433C4188C42F9D30A4A61
:101C60000A4C002301E013600432A242FBD303F0CC
:101C70007FF9FFF787F9704700000220000000207D
:101C8000D4010020C4740008D4010020E003002027
:101C9000FEE7000080B500AF0E4B1B680D4A43F411
:101CA000007313600B4B1B680A4A43F48063136094
:101CB000084B1B68074A43F480731360032000F04D
:101CC00031F9002000F008F8FFF7D8FD002318468E
:101CD00080BD00BF003C024080B582B000AF78609C
:101CE000124B1A68124B1B7819464FF47A73B3FBE8
:101CF000F1F3B2FBF3F3184600F03BF90346002B77
:101D000001D001230EE07B680F2B0AD800227968EE
:101D10004FF0FF3000F011F9064A7B681360002392
:101D200000E0012318460837BD4680BD00000020B2
:101D3000080000200400002080B400AF064B1B7890
:101D40001A46064B1B681344044A136000BFBD4685
:101D50005DF8047B704700BF08000020900200205F
:101D600080B400AF034B1B681846BD465DF8047B8A
:101D7000704700BF9002002080B584B000AF78604B
:101D8000FFF7EEFFB8607B68FB60FB68B3F1FF3FD5
:101D900005D00A4B1B781A46FB681344FB6000BF52
:101DA000FFF7DEFF0246BB68D31AFA689A42F7D8FB
:101DB00000BF00BF1037BD4680BD00BF0800002037
:101DC00080B485B000AF78607B6803F00703FB60E8
:101DD0000C4BDB68BB60BA684FF6FF031340BB6077
:101DE000FB681A02BB68134343F0BF6343F400333C
:101DF000BB60044ABB68D36000BF1437BD465DF8C2
:101E0000047B704700ED00E080B400AF044BDB685A
:101E10001B0A03F007031846BD465DF8047B7047B4
:101E200000ED00E080B483B000AF03463960FB7181
:101E300097F90730002B0ADB3B68DAB20C4997F9B7
:101E400007301201D2B20B4483F800230AE03B684A
:101E5000DAB20849FB7903F00F03043B1201D2B256
:101E60000B441A7600BF0C37BD465DF8047B704703
:101E700000E100E000ED00E080B489B000AFF86060
:101E8000B9607A60FB6803F00703FB61FB69C3F18B
:101E90000703042B28BF0423BB61FB690433062B13
:101EA00002D9FB69033B00E000237B614FF0FF3266
:101EB000BB6902FA03F3DA43BB681A407B699A40B4
:101EC0004FF0FF317B6901FA03F3D9437B680B4084
:101ED000134318462437BD465DF8047B7047000065
:101EE00080B582B000AF78607B68013BB3F1807F42
:101EF00001D301230FE00A4A7B68013B53600F21A5
:101F00004FF0FF30FFF78EFF054B00229A60044B25
:101F100007221A60002318460837BD4680BD00BF5F
:101F200010E000E080B582B000AF78607868FFF71D
:101F300047FF00BF0837BD4680BD80B586B000AF03
:101F40000346B9607A60FB7300237B61FFF75CFF97
:101F500078617A68B9687869FFF78EFF024697F969
:101F60000F3011461846FFF75DFF00BF1837BD461A
:101F700080BD80B582B000AF78607868FFF7B0FFB1
:101F8000034618460837BD4680BD000080B489B0BE
:101F900000AF7860396000237B6100233B61002340
:101FA000BB610023FB6159E10122FB6902FA03F3E3
:101FB0007B613B681B687A6913403B613A697B69C6
:101FC0009A4240F048813B685B6803F00303012BB1
:101FD00005D03B685B6803F00303022B30D17B68BC
:101FE0009B68BB61FB695B00032202FA03F3DB43DE
:101FF000BA691340BB613B68DA68FB695B0002FAAF
:1020000003F3BA691343BB617B68BA699A607B6862
:102010005B68BB610122FB6902FA03F3DB43BA6927
:102020001340BB613B685B681B0903F00102FB695D
:1020300002FA03F3BA691343BB617B68BA695A6059
:102040003B685B6803F00303032B17D07B68DB68F6
:10205000BB61FB695B00032202FA03F3DB43BA694D
:102060001340BB613B689A68FB695B0002FA03F3AB
:10207000BA691343BB617B68BA69DA603B685B6825
:1020800003F00303022B23D1FB69DA087B680832D3
:1020900053F82230BB61FB6903F007039B000F225A
:1020A00002FA03F3DB43BA691340BB613B681A6968
:1020B000FB6903F007039B0002FA03F3BA691343B9
:1020C000BB61FB69DA087B680832B96943F8221002
:1020D0007B681B68BB61FB695B00032202FA03F3A8
:1020E000DB43BA691340BB613B685B6803F00302E2
:1020F000FB695B0002FA03F3BA691343BB617B68B7
:10210000BA691A603B685B6803F44033002B00F047
:10211000A2800023FB60574B5B6C564A43F480431C
:102120005364544B5B6C03F48043FB60FB68524A7E
:10213000FB699B08023352F82330BB61FB6903F053
:1021400003039B000F2202FA03F3DB43BA69134037
:10215000BB617B68494A934219D07B68484A9342E5
:1021600013D07B68474A93420DD07B68464A93421E
:1021700007D07B68454A934201D1042308E0072336
:1021800006E0032304E0022302E0012300E0002331
:10219000FA6902F0030292009340BA691343BB61EB
:1021A0003549FB699B080233BA6941F82320384B53
:1021B0009B68BB613B69DB43BA691340BB613B6809
:1021C0005B6803F48013002B03D0BA693B691343A7
:1021D000BB612F4ABB6993602D4BDB68BB613B69D8
:1021E000DB43BA691340BB613B685B6803F40013CF
:1021F000002B03D0BA693B691343BB61244ABB6916
:10220000D360234B5B68BB613B69DB43BA69134016
:10221000BB613B685B6803F40033002B03D0BA69F1
:102220003B691343BB611A4ABB695360184B1B6877
:10223000BB613B69DB43BA691340BB613B685B68C8
:1022400003F48033002B03D0BA693B691343BB61AD
:102250000F4ABB691360FB690133FB61FB690F2BFC
:102260007FF6A2AE00BF00BF2437BD465DF8047BF9
:10227000704700BF003802400038014000000240B3
:102280000004024000080240000C0240001002401E
:10229000003C014080B487B000AF78603960002313
:1022A0003B610023FB600023BB6000237B61BBE03C
:1022B00001227B6902FA03F33B613A683B691340F0
:1022C000FB60FA683B699A4240F0AB805C4A7B69EC
:1022D0009B08023352F82330BB607B6903F0030391
:1022E0009B000F2202FA03F3BA681340BB607B68BD
:1022F000544A934219D07B68534A934213D07B6867
:10230000524A93420DD07B68514A934207D07B6872
:10231000504A934201D1042308E0072306E0032337
:1023200004E0022302E0012300E000237A6902F0C6
:10233000030292009340BA689A4232D1464B1A681F
:10234000FB68DB43444913400B60434B5A68FB680E
:10235000DB43414913404B603F4BDA68FB68DB438A
:102360003D491340CB603C4B9A68FB68DB433A49DC
:1023700013408B607B6903F003039B000F2202FA7A
:1023800003F3BB602E4A7B699B08023352F823108B
:10239000BB68DA432A487B699B080A40023340F84D
:1023A00023207B681A687B695B00032101FA03F331
:1023B000DB431A407B681A607B69DA087B68083265
:1023C00053F822107B6903F007039B000F2202FAE7
:1023D00003F3DB437A69D20819407B68083243F87B
:1023E00022107B68DA687B695B00032101FA03F342
:1023F000DB431A407B68DA607B685A6801217B699D
:1024000001FA03F3DB431A407B685A607B689A68E1
:102410007B695B00032101FA03F3DB431A407B680D
:102420009A607B6901337B617B690F2B7FF640AF3C
:1024300000BF00BF1C37BD465DF8047B704700BF7E
:102440000038014000000240000402400008024041
:10245000000C024000100240003C014080B483B0F8
:1024600000AF78600B467B8013467B707B78002B37
:1024700003D07A887B689A6103E07B881A047B68C2
:102480009A6100BF0C37BD465DF8047B70470000C1
:1024900080B584B000AF78607B68002B01D1012348
:1024A0002BE17B6893F83D30DBB2002B06D17B68D3
:1024B000002283F83C207868FFF708FA7B68242222
:1024C00083F83D207B681B681A687B681B6822F0D4
:1024D00001021A607B681B681A687B681B6842F4FB
:1024E00000421A607B681B681A687B681B6822F4CC
:1024F00000421A6001F066FCF8607B685B68814A04
:10250000934207D8FB68804A934294BF012300237B
:10251000DBB206E0FB687D4A934294BF01230023AF
:10252000DBB2002B01D00123E7E0FB68784AA2FB75
:1025300003239B0CBB607B681B685B6823F03F0137
:102540007B681B68BA680A435A607B681B681B6A11
:1025500023F03F017B685B686A4A934202D8BB68FC
:10256000013309E0BB684FF4967202FB03F3694A3A
:10257000A2FB03239B0901337A6812680B431362A1
:102580007B681B68DB6923F44F4222F0FF027B6803
:102590005B685C498B4219D8FB68591E7B685B6895
:1025A0005B00B1FBF3F3591C40F6FC730B40002BAE
:1025B0000AD0FB68591E7B685B685B00B1FBF3F3D4
:1025C0000133C3F30B0351E004234FE07B689B68A6
:1025D000002B11D1FB68581E7B6859680B465B00C5
:1025E0000B44B0FBF3F30133C3F30B03002B0CBF1D
:1025F00001230023DBB212E0FB68581E7B68596898
:102600000B469B000B4499000B44B0FBF3F30133E2
:10261000C3F30B03002B0CBF01230023DBB2002B01
:1026200001D0012322E07B689B68002B0ED1FB6860
:10263000581E7B6859680B465B000B44B0FBF3F3F4
:102640000133C3F30B0343F400430FE0FB68581E50
:102650007B6859680B469B000B4499000B44B0FB08
:10266000F3F30133C3F30B0343F440437968096880
:102670001343CB617B681B681B6823F0C0017B6838
:10268000DA697B681B6A1A437B681B680A431A6015
:102690007B681B689B6823F4034323F0FF037A687D
:1026A00011697A68D26811437A6812680B439360A3
:1026B0007B681B68DB6823F0FF017B685A697B68D5
:1026C0009B691A437B681B680A43DA607B681B6856
:1026D0001A687B681B6842F001021A607B6800225E
:1026E0001A647B68202283F83D207B6800221A63ED
:1026F0007B68002283F83E20002318461037BD4631
:1027000080BD00BFA08601007F841E00FF083D0041
:1027100083DE1B43D34D621080B582B000AF78607A
:102720007B68002B01D1012321E07B68242283F800
:102730003D207B681B681A687B681B6822F00102D9
:102740001A607868FFF70AF97B6800221A647B68D0
:10275000002283F83D207B6800221A637B680022F8
:1027600083F83E207B68002283F83C200023184633
:102770000837BD4680BD000080B588B002AFF86064
:102780007A601A460B467B8113463B81FFF7E8FAD5
:102790007861FB6893F83D30DBB2202B40F0E0809D
:1027A0007B690093192301227049F86800F064FCEA
:1027B0000346002B01D00223D3E0FB6893F83C30A2
:1027C000012B01D10223CCE0FB68012283F83C20DD
:1027D000FB681B681B6803F00103012B07D0FB6833
:1027E0001B681A68FB681B6842F001021A60FB68EC
:1027F0001B681A68FB681B6822F400621A60FB6899
:10280000212283F83D20FB68102283F83E20FB68DC
:1028100000221A64FB687A685A62FB683A895A8512
:10282000FB685B8D9AB2FB681A85FB68504ADA62D6
:1028300079897B693A6AF86800F0CEFA0346002B82
:1028400001D001238DE000233B61FB681B685B69BD
:102850003B61FB681B689B693B613B6966E07A6989
:10286000396AF86800F022FD0346002B0DD0FB68A2
:102870001B6C042B07D1FB681B681A68FB681B687C
:1028800042F400721A6001236BE0FB685B6A1A78FD
:10289000FB681B681A61FB685B6A5A1CFB685A621A
:1028A000FB685B8D9BB2013B9AB2FB685A85FB6863
:1028B0001B8D013B9AB2FB681A85FB681B685B693C
:1028C00003F00403042B1BD1FB681B8D002B17D0D6
:1028D000FB685B6A1A78FB681B681A61FB685B6AB5
:1028E0005A1CFB685A62FB685B8D9BB2013B9AB233
:1028F000FB685A85FB681B8D013B9AB2FB681A8501
:102900007A69396AF86800F019FD0346002B0DD08A
:10291000FB681B6C042B07D1FB681B681A68FB68FB
:102920001B6842F400721A6001231AE0FB681B8DD9
:10293000002B94D1FB681B681A68FB681B6842F483
:1029400000721A60FB68202283F83D20FB68002299
:1029500083F83E20FB68002283F83C20002300E03F
:10296000022318461837BD4680BD00BF0200100084
:102970000000FFFF80B58CB002AFF8607A601A46A5
:102980000B467B8113463B81FFF7EAF97862FB68CF
:1029900093F83D30DBB2202B40F017827B6A009326
:1029A000192301227C49F86800F066FB0346002BDE
:1029B00001D002230AE2FB6893F83C30012B01D1DD
:1029C000022303E2FB68012283F83C20FB681B68BA
:1029D0001B6803F00103012B07D0FB681B681A6812
:1029E000FB681B6842F001021A60FB681B681A68EA
:1029F000FB681B6822F400621A60FB68222283F8DD
:102A00003D20FB68102283F83E20FB6800221A64F8
:102A1000FB687A685A62FB683A895A85FB685B8D65
:102A20009AB2FB681A85FB685C4ADA6279897B6A2C
:102A30003A6BF86800F052FA0346002B01D00123EC
:102A4000C4E1FB681B8D002B13D100233B62FB68A4
:102A50001B685B693B62FB681B689B693B623B6A66
:102A6000FB681B681A68FB681B6842F400721A60F6
:102A700098E1FB681B8D012B1BD1FB681B681A6852
:102A8000FB681B6822F480621A600023FB61FB680C
:102A90001B685B69FB61FB681B689B69FB61FB69E9
:102AA000FB681B681A68FB681B6842F400721A60B6
:102AB00078E1FB681B8D022B1BD1FB681B681A6831
:102AC000FB681B6822F480621A60FB681B681A6846
:102AD000FB681B6842F400621A600023BB61FB685C
:102AE0001B685B69BB61FB681B689B69BB61BB6959
:102AF00058E1FB681B681A68FB681B6842F4806237
:102B00001A6000237B61FB681B685B697B61FB6863
:102B10001B689B697B617B6944E1FB681B8D032B10
:102B200000F2F180FB681B8D012B23D17A6A396B8F
:102B3000F86800F04BFC0346002B01D0012345E16F
:102B4000FB681B681A69FB685B6AD2B21A70FB6883
:102B50005B6A5A1CFB685A62FB681B8D013B9AB288
:102B6000FB681A85FB685B8D9BB2013B9AB2FB68E0
:102B70005A8517E1FB681B8D022B4ED17B6A0093AF
:102B80003B6B00220649F86800F076FA0346002BFA
:102B900008D001231AE100BF020010000000FFFF6F
:102BA00004000100FB681B681A68FB681B6842F49C
:102BB00000721A60FB681B681A69FB685B6AD2B214
:102BC0001A70FB685B6A5A1CFB685A62FB681B8DB3
:102BD000013B9AB2FB681A85FB685B8D9BB2013B97
:102BE0009AB2FB685A85FB681B681A69FB685B6AC6
:102BF000D2B21A70FB685B6A5A1CFB685A62FB68A7
:102C00001B8D013B9AB2FB681A85FB685B8D9BB2FA
:102C1000013B9AB2FB685A85C4E07B6A00933B6B28
:102C200000226C49F86800F027FA0346002B01D017
:102C30000123CBE0FB681B681A68FB681B6822F461
:102C400080621A60FB681B681A69FB685B6AD2B213
:102C50001A70FB685B6A5A1CFB685A62FB681B8D22
:102C6000013B9AB2FB681A85FB685B8D9BB2013B06
:102C70009AB2FB685A857B6A00933B6B00225549E8
:102C8000F86800F0F9F90346002B01D001239DE01C
:102C9000FB681B681A68FB681B6842F400721A60C4
:102CA000FB681B681A69FB685B6AD2B21A70FB6822
:102CB0005B6A5A1CFB685A62FB681B8D013B9AB227
:102CC000FB681A85FB685B8D9BB2013B9AB2FB687F
:102CD0005A85FB681B681A69FB685B6AD2B21A7076
:102CE000FB685B6A5A1CFB685A62FB681B8D013BE0
:102CF0009AB2FB681A85FB685B8D9BB2013B9AB266
:102D0000FB685A854EE07A6A396BF86800F05EFB22
:102D10000346002B01D0012358E0FB681B681A69A9
:102D2000FB685B6AD2B21A70FB685B6A5A1CFB686C
:102D30005A62FB681B8D013B9AB2FB681A85FB68DF
:102D40005B8D9BB2013B9AB2FB685A85FB681B689E
:102D50005B6903F00403042B24D1FB681B8D032B58
:102D600007D1FB681B681A68FB681B6822F4806245
:102D70001A60FB681B681A69FB685B6AD2B21A703A
:102D8000FB685B6A5A1CFB685A62FB681B8D013B3F
:102D90009AB2FB681A85FB685B8D9BB2013B9AB2C5
:102DA000FB685A85FB681B8D002B7FF4B6AEFB6871
:102DB000202283F83D20FB68002283F83E20FB6838
:102DC000002283F83C20002300E002231846283725
:102DD000BD4680BD0400010080B588B002AFF86038
:102DE0007A603B600B467B81FB68DB6A7B617B69B9
:102DF000082B06D07B69012B03D07B6913F5803F3C
:102E000008D1FB681B681A68FB681B6842F4807273
:102E10001A600BE0FB681B6B122B07D1FB681B6869
:102E20001A68FB681B6842F480721A603B68009362
:102E30007B6800224FF00111F86800F01DF903468D
:102E4000002B0DD0FB681B681B6803F48073B3F57F
:102E5000807F03D1FB684FF400721A64032335E0CE
:102E6000FB681B69B3F5804F08D17B89DBB21A463A
:102E7000FB681B6802F0FE021A611BE07B89DB1114
:102E8000DBB203F00603DBB263F00F03DAB2FB68D8
:102E90001B681A613B687A680E49F86800F066F9A9
:102EA0000346002B01D0012310E07B89DAB2FB68D6
:102EB0001B681A613B687A680749F86800F056F9A0
:102EC0000346002B01D0012300E0002318461837E9
:102ED000BD4680BD080001000200010080B588B039
:102EE00002AFF8607A603B600B467B81FB68DB6A6F
:102EF0007B61FB681B681A68FB681B6842F4806290
:102F00001A607B69082B06D07B69012B03D07B6993
:102F100013F5803F08D1FB681B681A68FB681B68C3
:102F200042F480721A600BE0FB681B6B112B07D117
:102F3000FB681B681A68FB681B6842F480721A60A1
:102F40003B6800937B6800224FF00111F86800F0A5
:102F500093F80346002B0DD0FB681B681B6803F435
:102F60008073B3F5807F03D1FB684FF400721A645D
:102F7000032379E0FB681B69B3F5804F08D17B8997
:102F8000DBB243F00103DAB2FB681B681A615FE051
:102F90007B89DB11DBB203F00603DBB263F00F03C6
:102FA000DAB2FB681B681A613B687A683049F868D6
:102FB00000F0DCF80346002B01D0012354E07B89AC
:102FC000DAB2FB681B681A613B687A682949F868BD
:102FD00000F0CCF80346002B01D0012344E000238D
:102FE0003B61FB681B685B693B61FB681B689B6915
:102FF0003B613B69FB681B681A68FB681B6842F40D
:1030000080721A603B6800937B6800224FF00111C8
:10301000F86800F031F80346002B0DD0FB681B6800
:103020001B6803F48073B3F5807F03D1FB684FF412
:1030300000721A64032317E07B89DB11DBB203F013
:103040000603DBB263F00E03DAB2FB681B681A6199
:103050003B687A680749F86800F088F80346002B57
:1030600001D0012300E0002318461837BD4680BD7B
:10307000080001000200010080B584B000AFF860D4
:10308000B9603B601346FB7148E03B68B3F1FF3F1A
:1030900044D0FEF765FE0246BB69D31A3A689A42ED
:1030A00002D33B68002B39D1BB681B0CDBB2012B70
:1030B0000DD1FB681B685B69DA43BB6813409BB2A8
:1030C000002B0CBF01230023DBB21A460CE0FB6887
:1030D0001B689B69DA43BB6813409BB2002B0CBF93
:1030E00001230023DBB21A46FB799A4216D1FB6812
:1030F00000221A63FB68202283F83D20FB6800222F
:1031000083F83E20FB681B6C43F02002FB681A64C6
:10311000FB68002283F83C20012323E0BB681B0CE2
:10312000DBB2012B0DD1FB681B685B69DA43BB681E
:1031300013409BB2002B0CBF01230023DBB21A46C5
:103140000CE0FB681B689B69DA43BB6813409BB2C9
:10315000002B0CBF01230023DBB21A46FB799A42F5
:1031600093D0002318461037BD4680BD80B584B08B
:1031700000AFF860B9607A603B6071E0FB681B6883
:103180005B6903F48063B3F5806F23D1FB681B6830
:103190001A68FB681B6842F400721A60FB681B68BF
:1031A0006FF480625A61FB6800221A63FB68202278
:1031B00083F83D20FB68002283F83E20FB681B6CEF
:1031C00043F00402FB681A64FB68002283F83C2089
:1031D000012367E07B68B3F1FF3F41D0FEF7C0FDFC
:1031E00002463B68D31A7A689A4202D37B68002B66
:1031F00036D1BB681B0CDBB2012B0CD1FB681B6802
:103200005B69DA43BB6813409BB2002B14BF0123F8
:103210000023DBB20BE0FB681B689B69DA43BB68E9
:1032200013409BB2002B14BF01230023DBB2002B01
:1032300016D0FB6800221A63FB68202283F83D2029
:10324000FB68002283F83E20FB681B6C43F02002E1
:10325000FB681A64FB68002283F83C20012321E00C
:10326000BB681B0CDBB2012B0CD1FB681B685B69D4
:10327000DA43BB6813409BB2002B14BF0123002329
:10328000DBB20BE0FB681B689B69DA43BB68134049
:103290009BB2002B14BF01230023DBB2002B7FF471
:1032A0006DAF002318461037BD4680BD80B584B091
:1032B00000AFF860B9607A6034E0F86800F0E3F8D5
:1032C0000346002B01D0012334E0BB68B3F1FF3F7C
:1032D00028D0FEF745FD02467B68D31ABA689A42A9
:1032E00002D3BB68002B1DD1FB681B685B6903F030
:1032F0008003802B16D0FB6800221A63FB68202213
:1033000083F83D20FB68002283F83E20FB681B6C9D
:1033100043F02002FB681A64FB68002283F83C201B
:10332000012307E0FB681B685B6903F08003802BC7
:10333000C3D1002318461037BD4680BD80B584B088
:1033400000AFF860B9607A6034E0F86800F09BF88C
:103350000346002B01D0012334E0BB68B3F1FF3FEB
:1033600028D0FEF7FDFC02467B68D31ABA689A4261
:1033700002D3BB68002B1DD1FB681B685B6903F09F
:103380000403042B16D0FB6800221A63FB6820227A
:1033900083F83D20FB68002283F83E20FB681B6C0D
:1033A00043F02002FB681A64FB68002283F83C208B
:1033B000012307E0FB681B685B6903F00403042B2F
:1033C000C3D1002318461037BD4680BD80B584B0F8
:1033D00000AFF860B9607A6049E0FB681B685B6920
:1033E00003F01003102B19D1FB681B686FF010025B
:1033F0005A61FB6800221A63FB68202283F83D2093
:10340000FB68002283F83E20FB681A6CFB681A6494
:10341000FB68002283F83C20012330E0FEF7A0FC8B
:1034200002467B68D31ABA689A4202D3BB68002B63
:103430001DD1FB681B685B6903F04003402B16D06D
:10344000FB6800221A63FB68202283F83D20FB689A
:10345000002283F83E20FB681B6C43F02002FB68CF
:103460001A64FB68002283F83C20012307E0FB6814
:103470001B685B6903F04003402BAED10023184664
:103480001037BD4680BD80B483B000AF78607B68E4
:103490001B685B6903F48063B3F5806F1BD17B68A5
:1034A0001B686FF480625A617B6800221A637B6834
:1034B000202283F83D207B68002283F83E207B6831
:1034C0001B6C43F004027B681A647B68002283F85B
:1034D0003C20012300E0002318460C37BD465DF870
:1034E000047B704780B586B000AF78607B68002BA6
:1034F00001D1012367E27B681B6803F00103002B05
:1035000075D0884B9B6803F00C03042B0CD0854BC3
:103510009B6803F00C03082B12D1824B5B6803F409
:103520008003B3F5800F0BD17E4B1B6803F400338F
:10353000002B5BD07B685B68002B57D1012342E2F4
:103540007B685B68B3F5803F06D1764B1B68754A94
:1035500043F4803313601DE07B685B68B3F5A02FF4
:103560000CD1704B1B686F4A43F4802313606D4B82
:103570001B686C4A43F4803313600BE0694B1B6893
:10358000684A23F480331360664B1B68654A23F452
:10359000802313607B685B68002B13D0FEF7E0FB91
:1035A000386108E0FEF7DCFB02463B69D31A642B66
:1035B00001D9032307E25B4B1B6803F40033002BA4
:1035C000F0D014E0FEF7CCFB386108E0FEF7C8FB52
:1035D00002463B69D31A642B01D90323F3E1514B13
:1035E0001B6803F40033002BF0D100E000BF7B68C0
:1035F0001B6803F00203002B63D04A4B9B6803F067
:103600000C03002B0BD0474B9B6803F00C03082BDB
:103610001CD1444B5B6803F48003002B16D1414B53
:103620001B6803F00203002B05D07B68DB68012BCD
:1036300001D00123C7E13B4B1B6823F0F8027B68F4
:103640001B69DB00374913430B603AE07B68DB689A
:10365000002B20D0344B01221A60FEF781FB386129
:1036600008E0FEF77DFB02463B69D31A022B01D925
:103670000323A8E12B4B1B6803F00203002BF0D0BF
:10368000284B1B6823F0F8027B681B69DB00254987
:1036900013430B6015E0244B00221A60FEF760FB19
:1036A000386108E0FEF75CFB02463B69D31A022B47
:1036B00001D9032387E11B4B1B6803F00203002B96
:1036C000F0D17B681B6803F00803002B36D07B68C1
:1036D0005B69002B16D0154B01221A60FEF740FBE8
:1036E000386108E0FEF73CFB02463B69D31A022B27
:1036F00001D9032367E10B4B5B6F03F00203002B3F
:10370000F0D01BE0094B00221A60FEF729FB38615C
:103710000EE0FEF725FB02463B69D31A022B07D9C0
:10372000032350E10038024000004742800E474228
:10373000884B5B6F03F00203002BEAD17B681B68A8
:1037400003F00403002B00F097800023FB75814BEE
:103750001B6C03F08053002B0FD10023BB607D4B0B
:103760001B6C7C4A43F0805313647A4B1B6C03F050
:103770008053BB60BB680123FB75774B1B6803F468
:103780008073002B18D1744B1B68734A43F4807309
:103790001360FEF7E5FA386108E0FEF7E1FA024649
:1037A0003B69D31A022B01D903230CE16A4B1B6836
:1037B00003F48073002BF0D07B689B68012B06D14B
:1037C000644B1B6F634A43F0010313671CE07B6883
:1037D0009B68052B0CD15F4B1B6F5E4A43F00403C3
:1037E00013675C4B1B6F5B4A43F0010313670BE0ED
:1037F000584B1B6F574A23F001031367554B1B6F40
:10380000544A23F0040313677B689B68002B15D090
:10381000FEF7A6FA38610AE0FEF7A2FA02463B6913
:10382000D31A41F28832934201D90323CBE0494BAA
:103830001B6F03F00203002BEED014E0FEF790FAAA
:1038400038610AE0FEF78CFA02463B69D31A41F26E
:103850008832934201D90323B5E03E4B1B6F03F03E
:103860000203002BEED1FB7D012B05D1394B1B6CE4
:10387000384A23F0805313647B689B69002B00F067
:10388000A180344B9B6803F00C03082B5CD07B6851
:103890009B69022B41D1314B00221A60FEF760FA7E
:1038A000386108E0FEF75CFA02463B69D31A022B46
:1038B00001D9032387E0274B1B6803F00073002B1B
:1038C000F0D17B68DA697B681B6A1A437B685B6AA4
:1038D0009B011A437B689B6A5B08013B1B041A43EC
:1038E0007B68DB6A1B061B4913434B601B4B0122A1
:1038F0001A60FEF735FA386108E0FEF731FA024641
:103900003B69D31A022B01D903235CE0114B1B68DE
:1039100003F00073002BF0D054E0104B00221A602B
:10392000FEF71EFA386108E0FEF71AFA02463B6914
:10393000D31A022B01D9032345E0064B1B6803F081
:103940000073002BF0D13DE07B689B69012B07D110
:10395000012338E000380240007000406000474218
:103960001B4B5B68FB607B689B69012B28D0FB6865
:1039700003F480027B68DB699A4221D1FB6803F083
:103980003F027B681B6A9A421AD1FA6847F6C073F5
:1039900013407A68526A9201934211D1FB6803F492
:1039A00040327B689B6A5B08013B1B049A4207D14B
:1039B000FB6803F070627B68DB6A1B069A4201D0E9
:1039C000012300E0002318461837BD4680BD00BF24
:1039D0000038024080B584B000AF786039607B6801
:1039E000002B01D10123CCE0684B1B6803F00703D7
:1039F0003A689A420CD9654B3A68D2B21A70634B56
:103A00001B6803F007033A689A4201D00123B8E02B
:103A10007B681B6803F00203002B20D07B681B68C7
:103A200003F00403002B05D0594B9B68584A43F41C
:103A3000E05393607B681B6803F00803002B05D0FC
:103A4000534B9B68524A43F460439360504B9B68CE
:103A500023F0F0027B689B684D4913438B607B68C1
:103A60001B6803F00103002B44D07B685B68012BCB
:103A700007D1474B1B6803F40033002B19D10123F6
:103A80007FE07B685B68022B03D07B685B68032B5D
:103A900007D13F4B1B6803F00073002B09D10123B2
:103AA0006FE03B4B1B6803F00203002B01D10123A5
:103AB00067E0374B9B6823F003027B685B683449FF
:103AC00013438B60FEF74CF9F8600AE0FEF748F903
:103AD0000246FB68D31A41F28832934201D903238C
:103AE0004FE02B4B9B6803F00C027B685B689B00EC
:103AF0009A42EBD1254B1B6803F007033A689A42C0
:103B00000CD2224B3A68D2B21A70204B1B6803F0D9
:103B100007033A689A4201D0012332E07B681B68B0
:103B200003F00403002B08D0194B9B6823F4E052E8
:103B30007B68DB68164913438B607B681B6803F066
:103B40000803002B09D0124B9B6823F460427B686A
:103B50001B69DB000E4913438B6000F021F802461D
:103B60000B4B9B681B0903F00F030A49CB5C22FA3D
:103B700003F3094A1360094B1B681846FEF7ACF8BB
:103B8000002318461037BD4680BD00BF003C0240F0
:103B900000380240247100080000002004000020CA
:103BA0002DE9B04F94B000AF00237B640023FB6489
:103BB00000233B640023BB64794B9B6803F00C0338
:103BC000082B0DD0082B00F2E180002B02D0042B33
:103BD00003D0DBE0734BBB64DBE0734BBB64D8E02A
:103BE0006F4B5B6803F03F037B646D4B5B6803F4D2
:103BF0008003002B63D06A4B5B689B090022BB6388
:103C0000FA63BB6BC3F308033B6300237B63D7E911
:103C10000C4522462B464FF000004FF000015901A1
:103C200041EAD261500102460B462146511A3961E0
:103C3000294663EB01037B614FF000024FF0000364
:103C4000D7E904AB59468B01514643EA916351468B
:103C50008A015146B2EB0108594663EB01094FF066
:103C600000024FF000034FEAC90343EA58734FEADA
:103C7000C80290469946234618EB0303BB602B46C7
:103C800049EB0303FB604FF000024FF00003D7E95C
:103C9000024529464B02214643EAD15321464A02B6
:103CA000104619467B6C0022BB62FA62D7E90A23F0
:103CB000FCF7D2FF02460B461346FB6458E0384B34
:103CC0005B689B09002218461146C0F308033B625B
:103CD00000237B62D7E9088942464B464FF000003B
:103CE0004FF00001590141EAD261500102460B46F2
:103CF0004146B2EB010A494663EB010B4FF000026B
:103D00004FF000034FEA8B1343EA9A634FEA8A129B
:103D1000B2EB0A0463EB0B054FF000024FF0000317
:103D2000EB0043EA5473E20014461D464346E31891
:103D30003B604B4645EB03037B604FF000024FF0C6
:103D40000003D7E9004529468B02214643EA9153F7
:103D500021468A02104619467B6C0022BB61FA613B
:103D6000D7E90623FCF778FF02460B461346FB64AF
:103D70000B4B5B681B0C03F0030301335B003B64DC
:103D8000FA6C3B6CB2FBF3F3BB6402E0054BBB6423
:103D900000BFBB6C18465037BD46BDE8B08F00BFB2
:103DA000003802400024F40000127A0080B400AF12
:103DB000034B1B681846BD465DF8047B704700BF87
:103DC0000000002080B500AFFFF7F0FF0246054B72
:103DD0009B689B0A03F007030349CB5C22FA03F3B9
:103DE000184680BD003802403471000880B500AF2D
:103DF000FFF7DCFF0246054B9B685B0B03F00703F4
:103E00000349CB5C22FA03F3184680BD0038024018
:103E10003471000880B582B000AF78607B68002BF9
:103E200001D1012342E07B6893F84130DBB2002BE3
:103E300006D17B68002283F840207868FDF7B0FD4A
:103E40007B68242283F841207B681B68DA687B68E2
:103E50001B6822F40052DA60786800F02BF87B6867
:103E60001B681A697B681B6822F490421A617B68A0
:103E70001B685A697B681B6822F02A025A617B68BA
:103E80001B68DA687B681B6842F40052DA607B6862
:103E900000225A647B68202283F841207B6820221C
:103EA00083F842207B6800225A63002318460837B3
:103EB000BD4680BD2DE9B04FC0B000AFC7F8F400DB
:103EC000D7F8F4301B681B6923F44050D7F8F4305E
:103ED000D968D7F8F4301A6840EA01031361D7F8BB
:103EE000F4309A68D7F8F4301B691A43D7F8F430E5
:103EF0005B691A43D7F8F430DB691343C7F8F8302D
:103F0000D7F8F4301B68DB6823F4164121F00C016C
:103F1000D7F8F4301A68D7F8F8300B43D360D7F8E5
:103F2000F4301B685B6923F44070D7F8F43099696A
:103F3000D7F8F4301A6840EA01035361D7F8F43037
:103F40001A688F4B9A4205D0D7F8F4301A688D4B17
:103F50009A4204D1FFF74AFFC7F8FC0003E0FFF7DD
:103F600031FFC7F8FC00D7F8F430DB69B3F5004F38
:103F700040F00C81D7F8FC300022C7F8E830C7F8D1
:103F8000EC20D7E93A4522462B469118B9655B41AA
:103F9000FB65D7E91623214612EB0108294643EBBE
:103FA00001094FF000024FF000034FEAC90343EA52
:103FB00058734FEAC80290469946234618EB03030C
:103FC000C7F8E0302B4649EB0303C7F8E430D7F8D5
:103FD000F4305B680022C7F8D830C7F8DC20D7E996
:103FE00036120B46DB183B65134642EB03037B6539
:103FF000D7E91423D7E93801FCF72EFE02460B4619
:10400000614BA3FB02235B091C01D7F8FC300022A3
:10401000C7F8D030C7F8D420D7E9348942464B4698
:104020009118B9645B41FB64D7E91223414612EB56
:10403000010A494643EB010B4FF000024FF0000329
:104040004FEACB0343EA5A734FEACA0292469B46B1
:1040500043461AEB0303C7F8C8304B464BEB030348
:10406000C7F8CC30D7F8F4305B680022C7F8C0300E
:10407000C7F8C420D7E930120B46DB183B6413465F
:1040800042EB03037B64D7E91023D7E93201FCF745
:10409000E3FD02460B4611463B4BA3FB01235B09A4
:1040A000642202FB03F3CB1ADB0003F13202364B2E
:1040B000A3FB02235B095B0003F4F8731C44D7F8ED
:1040C000FC300022C7F8B830C7F8BC20D7E92E89E9
:1040D00042464B469118B9635B41FB63D7E90E2317
:1040E00041465118396349464B417B634FF000020A
:1040F0004FF00003D7E90CAB5946CB00514643EAD9
:1041000051735146CA0010461946034642469B1851
:10411000C7F8B0304B460A4642EB0303C7F8B43049
:10412000D7F8F4305B680022C7F8A830C7F8AC2095
:10413000D7E92A120B46DB18BB62134642EB030396
:10414000FB62D7E90A23D7E92C01FCF785FD02467B
:104150000B460D4BA3FB02135B09642101FB03F328
:10416000D31ADB003233084AA2FB03235B0903F0B6
:104170000702D7F8F4301B6822449A6006E100BFBA
:1041800000100140001401401F85EB51D7F8FC30AE
:104190000022C7F8A030C7F8A420D7E928894246F2
:1041A0004B46911839625B417B62D7E9082341464F
:1041B0005418494643EB01054FF000024FF000034D
:1041C000EB0043EA5473E20014461D464346E318ED
:1041D000C7F898304B4645EB0303C7F89C30D7F837
:1041E000F4305B680022C7F89030C7F894204FF095
:1041F00000024FF00003D7E9244529468B002146F1
:1042000043EA917321468A00D7E92601FCF724FD91
:1042100002460B46604BA3FB02235B091C01D7F847
:10422000FC300022C7F88830C7F88C20D7E92289F3
:1042300042464B469118B9615B41FB61D7E90623C1
:1042400041465118396149464B417B614FF00002AC
:104250004FF00003D7E904AB5946CB00514643EA7F
:1042600051735146CA0010461946034642469B18F0
:10427000C7F880304B460A4642EB0303C7F8843048
:10428000D7F8F4305B680022BB67FA674FF0000292
:104290004FF00003D7E91E8949468B00414643EAA7
:1042A000917341468A00D7E92001FCF7D5FC02460C
:1042B0000B461146384BA3FB01235B09642202FB2A
:1042C00003F3CB1A1B013233334AA2FB03235B09EE
:1042D00003F0F0031C44D7F8FC3000223B677A67F8
:1042E000D7E91C8942464B469118B9605B41FB6097
:1042F000D7E9022341465118396049464B417B605A
:104300004FF000024FF00003D7E900AB5946CB0055
:10431000514643EA51735146CA00104619460346B6
:1043200042469B18BB664B460A4642EB0303FB66BC
:10433000D7F8F4305B6800223B667A664FF00002E3
:104340004FF00003D7E9188949468B00414643EAFC
:10435000917341468A00D7E91A01FCF77DFC0246B9
:104360000B460D4BA3FB02135B09642101FB03F316
:10437000D31A1B013233084AA2FB03235B0903F063
:104380000F02D7F8F4301B6822449A6000BF07F58B
:104390008077BD46BDE8B08F1F85EB512DE9FF4703
:1043A00057EC106B002F0C4619463B46BBBF07F17C
:1043B00000431F4600232D230B700D9BDDF830A01A
:1043C000914623F02008BCBF32461646B8F1460F8E
:1043D00005D0B8F1450F00D10134022100E00321DE
:1043E00003AB019302AB009347EC106B534622469C
:1043F00000F06EFEB8F1470F054619D119F0010F14
:104400000ED000EB04090022002330463946FCF7A9
:1044100063FB08B1CDF80C903022039B4B451ED3B3
:10442000039B0E9A5B1B2846136004B0BDE8F0871F
:10443000B8F1460F00EB0409E5D10378302B0AD11F
:104440000022002330463946FCF746FB18B9C4F178
:104450000104CAF80040DAF800309944D3E7591C47
:1044600003911A70D9E7F7B50029BABF49422D2345
:104470002B2309290270437029DD0DF107031D4626
:104480000A271A46B1FBF7F607FB1614303402F878
:10449000014C0C46632C03F1FF333146F1DC303123
:1044A000941E03F8011C411C2346AB420AD30DF1B4
:1044B00009039B1AAC4288BF002302330344181A35
:1044C00003B0F0BD13F8016B01F8016FEDE7302385
:1044D00030318370C170031DF1E700002DE9F04F0A
:1044E0008DB00C46DDF8588016461F46054600F094
:1044F000EFFC036804931846FBF7C2FE00230A93FF
:10450000D8F800300590073323F0070303F10802C1
:1045100094F818A0D4F800B0C8F80020D3E90089B6
:1045200029F000430793CDF81880C4E91289DDE92A
:1045300006019C4B4FF0FF32FCF700FB70BBDDE93E
:104540000601984B4FF0FF32FCF7DAFA30BB00223D
:10455000002340464946FCF7C9FA10B12D2384F8E0
:104560004330914A914BBAF1470F8CBF9046984621
:10457000032323612BF0040323604FF0000900970D
:1045800033460BAA2146284600F0D2F9013040F00C
:104590008D804FF0FF300DB0BDE8F08F42464B46A6
:1045A00040464946FCF7CAFA40B14B46002BBCBF17
:1045B0002D2384F843307E4A7E4BD4E763680AF0AB
:1045C000DF0206925A1C3BD1062363604BF48062E3
:1045D0000023226003930AABCDE901A309AB00934A
:1045E000616849EC108B0DF123032846FFF7D6FED6
:1045F000069B0999472B804629D1C81C02DB6368BA
:10460000994241DDAAF1020A5FFA8AFA013952465B
:1046100004F150000991FFF726FF0A9A1318012AA6
:104620008146236102DC2268D20701D50133236170
:104630009DF82330002BA2D02D2384F843309EE731
:10464000069A472AC2D1002BC0D10123BDE7BAF197
:10465000650FDBD9BAF1660F18D1002963680BDD4D
:10466000216113B92268D00702D501330B442361BD
:10467000A1654FF00009DBE713B92268D20701D525
:104680000233F4E70123F2E74FF0670A0A9B9942ED
:1046900005DB23682161D807EAD54B1CE7E7002931
:1046A000D4BFC1F1020201221344E0E723685A0596
:1046B00007D42369424631462846B84701302BD1FA
:1046C00067E7BAF1650F40F2DD80D4E912010022FC
:1046D0000023FCF701FA002833D0374A0123314682
:1046E0002846B84701303FF454AFDDE90938434567
:1046F00002DB2368D8070FD5DDE9042331462846BD
:10470000B84701303FF445AF4FF0000908F1FF38DA
:1047100004F11A0AC84509DC23689B0700F10381EC
:10472000E0680B9B9842B8BF184634E70123524615
:1047300031462846B84701303FF42BAF09F1010953
:10474000E8E7099B002B39DC1B4A01233146284648
:10475000B84701303FF41DAFDDE9093959EA0303D9
:1047600002D12368D907D7D5DDE90423314628468D
:10477000B84701303FF40DAF4FF0000A04F11A0BB7
:10478000099B5B42534501DC4B4693E701235A46A4
:1047900031462846B84701303FF4FBAE0AF1010A22
:1047A000EEE700BFFFFFEF7F407100083C7100089B
:1047B00048710008447100084C710008A36DDDF8D1
:1047C00028A05345A8BF5346002B994636DC4FF02E
:1047D000000B29EAE97904F11A02A36D0693A3EB11
:1047E00009035B4531DC099B9A453ADC2368DA070B
:1047F00037D4099BAAEB0309069BAAEB030399454F
:10480000A8BF9946B9F1000F33DC4FF0000829EA40
:10481000E97904F11A0B099BAAEB0303A3EB090343
:1048200043457FF779AF01235A4631462846B847BA
:1048300001303FF4AEAE08F10108ECE742463146E4
:104840002846B8470130C2D1A3E6012331462846A5
:104850000692B84701303FF49CAE069A0BF1010B6B
:10486000BBE7DDE9042331462846B8470130C0D113
:104870008FE6069A4B46424431462846B8470130F7
:10488000C3D186E6DDF828A0BAF1010F01DCDB0711
:1048900036D50123424631462846B84701303FF419
:1048A00078AEDDE9042331462846B84701303FF4AD
:1048B00070AED4E91201002200230AF1FF3AFCF79E
:1048C0000BF9C0B9534608F1010231462846B847F2
:1048D00001300CD15DE601235A4631462846B847DF
:1048E00001303FF456AE08F10108D045F3DB4B46EA
:1048F00004F15002DFE64FF0000804F11A0BF4E770
:1049000001234246E1E701234A4631462846B8479B
:1049100001303FF43EAE08F10108E3680B995B1AE1
:104920004345F0DCFCE64FF0000804F11909F4E718
:104930002DE9F047164698468A680B69DDF8209005
:104940009342B8BF1346336091F8432007460C46A4
:104950000AB1013333602368990642BF33680233DA
:104960003360256815F0060506D104F1190AE368DD
:1049700032689B1AAB4226DC94F843302268003B35
:1049800018BF012392062BD404F143024146384656
:10499000C84701301ED02368226903F00603042BA8
:1049A00002BFE5683368ED1AA3680CBF25EAE57518
:1049B00000259342C4BF9B1AED1800261A34B54255
:1049C0001AD1002008E00123524641463846C84724
:1049D000013003D14FF0FF30BDE8F0870135C6E765
:1049E000E1185A1C302081F84300224494F8451005
:1049F00082F843100233C7E7012322464146384676
:104A0000C8470130E6D00136D9E700002DE9FF475D
:104A10000F7E0C9E782F914680460C469A4601F1F7
:104A2000430207D8622F0AD8002F00F0D180582FF8
:104A300000F0B88004F1420684F842703AE0A7F131
:104A40006303152BF6D801A151F823F0A54A0008FD
:104A5000B94A0008354A0008354A0008354A0008B6
:104A6000354A0008B94A0008354A0008354A0008A6
:104A7000354A0008354A0008B74B0008E34A0008E9
:104A8000714B0008354A0008354A0008D94B000828
:104A9000354A0008E34A0008354A0008354A00084C
:104AA000794B000833681A1D1B68326004F1420616
:104AB00084F8423001239CE033682068191D31607E
:104AC000060601D51D6803E04506FBD5B3F9005085
:104AD000002D03DA2D236D4284F8433058480A2311
:104AE00011E021683368080653F8045B02D44906D4
:104AF00048BFADB26F2F5248336014BF0A2308235A
:104B0000002184F843106668A660002E05DB21684A
:104B10002E4321F0040121604BD01646B5FBF3F182
:104B200003FB1157C75D06F8017D2F46BB420D46BA
:104B3000F4D9082B0BD12368DF0708D523696168F6
:104B40009942DEBF302306F8013C06F1FF36921B86
:104B50002261CDF800A04B4603AA21464046FFF74C
:104B6000E7FE01304AD14FF0FF3004B0BDE8F087D6
:104B7000236843F0200323603248782784F8457087
:104B8000236831681F0651F8045B02D45F0648BFF2
:104B9000ADB23160D90744BF43F0200323601DB19B
:104BA0001023ADE72648E9E7236823F020032360BC
:104BB000F6E71646BDE7336825686169181D306061
:104BC0002E061B6801D5196002E06806FBD5198026
:104BD000002323611646BCE733681A1D32601E6845
:104BE000626800213046FBF7FBFA08B1801B606069
:104BF00063682361002384F84330AAE723693246BF
:104C000049464046D0470130ADD023689B0713D4B6
:104C1000E068039B9842B8BF1846A6E701233246D6
:104C200049464046D04701309DD00135E36803999D
:104C30005B1AAB42F2DCEBE7002504F11906F5E75D
:104C40004E7100085F710008002310B50446C0E9EA
:104C50000033C0E90433836081814366C28183618C
:104C6000194608225C3000F02AF90D4B63620D4BA7
:104C7000A3620D4BE3620D4B23630D4B24629C42F8
:104C800006D003F16802944202D0D0339C4205D191
:104C900004F15800BDE8104000F08EB910BD00BF0F
:104CA000394E00085B4E0008934E0008B74E0008CE
:104CB00094020020024A0349034800F069B800BF8B
:104CC0000C0000201D6900081C00002041680C4BEE
:104CD000994210B5044601D001F020FEA168094BAD
:104CE000994202D0204601F019FEE168064B994234
:104CF00004D02046BDE8104001F010BE10BD00BF3A
:104D000094020020FC0200206403002010B50B4B2D
:104D10000B4C0C4A1A60204600220421FFF794FF36
:104D200004F1680001220921FFF78EFF04F1D00091
:104D30000222BDE810401221FFF786BFCC030020FD
:104D400094020020B54C0008014800F036B900BFBD
:104D5000D5030020014800F031B900BFD503002081
:104D600010B50446FFF7F0FF236A1BB1BDE8104001
:104D7000FFF7F0BF044B2362044B1B68002BF5D1F7
:104D8000FFF7C4FFF2E700BFCD4C0008CC030020C2
:104D90002DE9F8430746884614460026D4E90195D4
:104DA000B9F1010905D52468002CF7D13046BDE8DA
:104DB000F883AB89012B07D9B5F90E30013303D045
:104DC00029463846C04706436835E9E70CB430B594
:104DD000184B0C1E1D689DB008DA8B232B604FF01A
:104DE000FF301DB0BDE8304002B070474FF4027391
:104DF000ADF814304FF000031B9314BF04F1FF33E0
:104E00002346049307934FF6FF7302900690ADF884
:104E10001630209A21AB02A92846019301F0FEFB2F
:104E2000431CBCBF8B232B60002CDAD0029B0022DA
:104E30001A70D6E71800002010B50C46B1F90E1014
:104E400000F06CF80028ABBF636DA3891B1823F436
:104E50008053ACBF6365A38110BD2DE9F0411F46AF
:104E60008B89DB0505460C46164605D5B1F90E10B3
:104E70000223002200F040F8A389B4F90E1023F4B5
:104E80008053A38132463B462846BDE8F04100F0FE
:104E900057B810B50C46B1F90E1000F02DF8431CB0
:104EA000A38915BF606523F4805343F48053A38125
:104EB00018BFA38110BDB1F90E1000F00DB8024467
:104EC0000346934200D1704703F8011BF9E7000045
:104ED000004870475801002038B5064D00230446AD
:104EE00008462B60FCF72FFE431C02D12B6803B150
:104EF000236038BDD003002038B5074D044608466E
:104F0000114600222A601A46FCF744FE431C02D1D7
:104F10002B6803B1236038BDD003002038B5074D9E
:104F200004460846114600222A601A46FCF7D2FDC4
:104F3000431C02D12B6803B1236038BDD00300208D
:104F400038B5074D04460846114600222A601A4625
:104F5000FCF7DDFD431C02D12B6803B1236038BD93
:104F6000D0030020014B1868704700BF18000020D4
:104F700070B50D4D0D4C641BA4100026A64209D13E
:104F80000B4D0C4C02F068F8641BA4100026A642DE
:104F900005D170BD55F8043B98470136EEE755F84A
:104FA000043B98470136F2E7BC740008BC74000863
:104FB000BC740008C07400087047704770472DE942
:104FC000F74F03690C69A34207467EDB013C01F100
:104FD0001408A30000F11405009305EB840301936A
:104FE00058F8243055F8242001339A4208EB8409FC
:104FF000B2FBF3F62ED34FF0000AC446AE46D346BA
:105000005CF8043B98B206FB00A0020C1B0C06FBEC
:105010000323DEF8002080B292B2121A5A44DEF85E
:1050200000004FEA134A9BB2C3EB224303EB104349
:1050300092B242EA0342E1454EF8042B4FEA234B79
:10504000DED2009BEB582BB9019B043B9D421A46D4
:105050002FD33C61384601F07DF9002825DB294635
:10506000002058F8042BD1F800C01FFA82FE1FFA66
:105070008CF3A3EB0E030344120CC2EB234202EBAE
:105080001C429BB243EA0243C14541F8043B4FEA4C
:105090002240E6D255F8242005EB840322B9043BD4
:1050A0009D421A460BD33C610136304603B0BDE841
:1050B000F08F1268043B002ACBD1013CC6E712688E
:1050C000043B002AEFD1013CEAE70020EEE70000B4
:1050D0002DE9F04FC76997B08DED040B55EC104BDF
:1050E000209E079181460C9211937FB9102000F009
:1050F00009FE0246C9F81C0020B9A94BEF21A948B6
:1051000001F06CFCC0E901770760C760D9F81C307A
:10511000196859B15A684A60012393408B60484628
:1051200000F0E6FED9F81C3000221A602B1EB9BF31
:1051300023F00043059300233360059F9A4BBCBFC7
:1051400001223260BB4312D1119A42F20F731360F5
:10515000C7F31303234300F05A85219BDFF85CA2B9
:10516000002B00F05C850AF1030300F056BD9DEDB5
:10517000047B002251EC170B00238DED0A7BFBF71B
:10518000ABFC804658B1119A01231360219B13B1E7
:10519000219A864B1360DFF828A200F040BD9DEDF8
:1051A0000A0B14AA15A9484601F084F9C7F30A5658
:1051B0000290002E78D00B9BCDF84880C3F31303E8
:1051C000DDE90A0143F07F5343F44013A6F2FF36B2
:1051D00019460022764BFBF75FF86BA3D3E9002357
:1051E000FBF712FA6AA3D3E90023FBF757F804464A
:1051F00030460D46FBF79EF967A3D3E90023FBF782
:1052000003FA02460B4620462946FBF747F80446B8
:105210000D46FBF7A9FC002207460023204629463D
:10522000FBF764FC40B13846FBF784F922462B4675
:10523000FBF752FC00B9013F162F52D85D4B03EB30
:10524000C703D3E90023DDE90A01FBF74FFC00287F
:1052500049D0013F00231093149B9B1B5A1E45BF4E
:10526000C3F10103009300230023069254BF00936F
:105270000693002F39DB069B0D973B4406930023D2
:105280000893079B092B63D8052BC4BF043B0793E6
:10529000079BA3F10203CCBF00240124032B63D896
:1052A000DFE803F05254372BDDE914631E4406F2A5
:1052B0003243202BC1BFC3F140039F4006F212438B
:1052C00024FA03F3D6BFC3F1200347EA030004FA2C
:1052D00003F0FBF71FF90122A1F1F873013E1292CE
:1052E00076E70123B7E71090B6E7009BDB1B00933E
:1052F0007B42089300230D93C3E7012309930C9B82
:1053000007EB030B0BF10103012B0393B8BF012340
:1053100006E0012309930C9B002B28DD9B46039399
:10532000D9F81C000021042202F114059D4226D95F
:105330004160484600F09CFD8246002842D11E4B49
:10534000024640F2AF11DAE60023E3E70023D5E797
:1053500001240023079309944FF0FF3B0022CDF86E
:105360000CB012230C92DBE701230993F4E74FF012
:10537000010BCDF80CB05B46CDF830B0D0E7013171
:105380005200D1E7AFF3008061436F63A787D23F3C
:10539000B3C8608B288AC63FFB799F501344D33F24
:1053A0007D710008947100080000F07F4D710008C5
:1053B0000000F83FE8720008EC71000879710008FD
:1053C0004C710008D9F81C301860039B0E2B00F2BA
:1053D000A180002C00F09E80002F33DD9C4B07F055
:1053E0000F0203EBC20393ED007BF8058DED0E7BFE
:1053F0004FEA271416D5974BDDE90A01D3E90823B4
:10540000FBF72CFACDE9040104F00F040326914DBB
:1054100054B9DDE90E23DDE90401FBF71FFACDE9FC
:10542000040128E00226F2E7E10708D5DDE90E01D4
:10543000D5E90023FBF7E8F8CDE90E010136641049
:105440000835E5E700F0AF807C42814B814D04F0E8
:105450000F0203EBC203D3E90023DDE90A01FBF7E6
:10546000D3F8CDE90401241100230226002C40F0DA
:105470008F80002BD3D1109BDDE90445002B00F079
:105480009480754B002220462946FBF72FFB00280D
:1054900000F08B80039B002B00F08780BBF1000F96
:1054A00034DD20466D4B00222946FBF7ADF8CDE9EF
:1054B000040107F1FF3801365C463046FBF73AF845
:1054C000DDE90423FBF7A0F8654B0022FAF7E6FEBE
:1054D0000546A1F15076002C6AD1DDE90401614B4B
:1054E0000022FAF7D9FE02460B46CDE904232A46EC
:1054F0003346FBF719FB002840F09882DDE90401F0
:105500002A4606F10043FBF7F1FA38BBDDE90A341D
:10551000CDE90434159B002BC0F257810E2F00F308
:1055200054814B4B03EBC70393ED007B0C9B002B8B
:105530008DED007B80F2E580039B002B00F3E18082
:105540000CD1484B002251EC170BFBF75DF8DDE95D
:105550000423FBF7DFFA002800F0668200242546CA
:105560000C9B56466FEA030800272146484600F088
:10557000BFFC002D00F0BD802FB1AF4203D03946F3
:10558000484600F0B5FC2946484600F0B1FCB0E0C2
:10559000E20705D5D5E90023FBF736F801360123EC
:1055A0006410083562E7022665E7039CB84684E785
:1055B000274B099903EBC40353E902235444002900
:1055C00054D029490020FBF749F933462A46FAF717
:1055D00063FECDE90E015646DDE90401FBF7C4FA8E
:1055E0000546FAF7A7FF02460B46DDE90401FAF784
:1055F00053FE303502460B46CDE9042306F8015B25
:10560000DDE90E23FBF772FA002872D1DDE90423ED
:1056100011490020FAF740FEDDE90E23FBF766FA98
:10562000002840F0B480A6423FF470AFDDE90E01DF
:105630000A4B0022FAF7E8FF084BCDE90E010022E1
:10564000DDE90401FAF7E0FFCDE90401C4E700BF9A
:10565000E8720008C07200080000F03F000024401B
:1056600000001C40000014400000E03F3146284686
:10567000FAF7CAFFCDE90E0113945646DDE904019D
:10568000FBF772FA0546FAF755FF02460B46DDE9CD
:105690000401FAF701FE303506F8015B02460B46BD
:1056A000A642CDE904234FF0000224D1AF4BDDE93F
:1056B0000E01FAF7F3FD02460B46DDE90401FBF7A4
:1056C00033FA002863D1DDE90E23A8490020FAF758
:1056D000E3FD02460B46DDE90401FBF707FA00286B
:1056E0003FF414AF139E731E139316F8013C302B36
:1056F000F8D047463BE09E4BFAF786FFCDE9040120
:10570000BCE7DDE904455646DDE90023204629468D
:10571000FBF7A4F8FBF728FA8046FAF70BFFDDE960
:105720000023FAF771FF02460B462046294608F18E
:105730003004FAF7B1FD06F8014B039DA6EB0A040D
:10574000A54202460B4633D1FAF7A8FDDDE9002356
:1057500004460D46FBF7E8F9C0B9DDE90023204611
:105760002946FBF7B9F910B118F0010F0ED10299D3
:10577000484600F0BDFB00233370119B01371F60CA
:10578000219B002B00F04B821E6048E2B846334656
:105790001E4613F8012D392A06D19A45F8D1302238
:1057A00008F101088AF800201A7801321A70A0E77F
:1057B0006F4B0022FAF728FF0022002304460D4613
:1057C000FBF78AF900289FD0D1E7099A002A00F058
:1057D000EA80079A012A00F3CD80129A002A00F08D
:1057E000C18003F23343089C009E009A1A44009241
:1057F000069A01211A444846069200F02DFC0546FF
:1058000066B1069B002B09DDB342009AA8BF334660
:10581000D21A0092069AF61AD31A0693089B0BB373
:10582000099B002B00F0C680002C00F0C0802946A8
:105830002246484600F0C8FC029A01460546484602
:1058400000F020FC02998046484600F051FB089B7E
:105850001B1B089300F0B180089A4146484600F0AF
:10586000B3FC02900121484600F0F6FB0D9B044674
:10587000002B00F0D8811A460146484600F0A4FCEF
:10588000079B012B044600F39F80049B002B40F0F4
:105890009780059BC3F31303002B40F09380059B77
:1058A00023F000431B0D1B0533B1009B0133009314
:1058B000069B01330693012308930D9B002B00F0F8
:1058C000B881236904EB8303186900F079FBC0F108
:1058D0002000069B184410F01F0000F08280C0F1E9
:1058E0002003042B73DD009BC0F11C0003440093D4
:1058F000069B034406440693009B002B05DD02999A
:105900001A46484600F0BAFC0290069B002B05DDC3
:1059100021461A46484600F0B1FC0446109B002B75
:1059200061D00298214600F015FD00285BDA0023C3
:1059300002990A22484600F0FDFA099B029007F1FD
:10594000FF38002B00F07781294600230A224846C1
:1059500000F0F0FABBF1000F05466FDC079B022B4D
:1059600049DC6BE0149BC3F136033CE70000E03FE9
:1059700000002440039B5C1E089BA34209DB1C1B08
:10598000039B002BBFF630AF009B039A9E1A0023A7
:105990002BE7089B0D9A0894E31A1A44009E039B78
:1059A0000D92002421E7089C009E099D28E7DDF860
:1059B000088051E7089A029950E7CDF8088051E72E
:1059C000002379E7049B77E70023089379E793D0D6
:1059D000009A1C331A440092069A1A441E440692F6
:1059E0008AE70346F4E7039B002BB84620DC9B467E
:1059F000079B022B1EDDBBF1000F7FF4B1AD2146EA
:105A00005B460522484600F095FA01460446029896
:105A100000F0A0FC00287FF7A3AD5646312306F81E
:105A2000013B08F101089FE5039CB8462546F4E7D1
:105A3000DDF80CB0099B002B00F00181002E05DD84
:105A400029463246484600F019FC0546089B002BC3
:105A50005CD06968484600F00BFA064628B9824BCC
:105A6000024640F2EF21FFF74ABB2A690232920058
:105A700005F10C010C3000F0A3FF0122314648462D
:105A800000F0FCFB0AF1010300930AEB0B030893FF
:105A9000049B03F001032F4606930546009B0298E2
:105AA000214603F1FF3BFFF78AFA034630330390A8
:105AB00039460298099300F04DFC2A46049021468D
:105AC000484600F063FCC268099B064602BB0146DB
:105AD000029800F03FFC099B0246314648460C9272
